:100000000C9462000C948A000C948A000C948A0070
:100010000C948A000C948A000C948A000C948A0038
:100020000C948A000C948A000C948A000C948A0028
:100030000C948A000C948A000C948A000C948A0018
:100040000C9498020C948A000C9408030C94E2021D
:100050000C948A000C948A000C948A000C948A00F8
:100060000C948A000C948A000000000023002600F3
:10007000290000000000240027002A0000000000E2
:10008000250028002B0004040404040404040202D4
:100090000202020203030303030301020408102007
:1000A0004080010204081020010204081020000012
:1000B0000008000201000003040700000000000027
:1000C0000000060511241FBECFEFD8E0DEBFCDBF74
:1000D00011E0A0E0B1E0E6E2FDE002C005900D9283
:1000E000A232B107D9F721E0A2E2B1E001C01D922E
:1000F000AA3CB207E1F710E0C2E6D0E004C02197C5
:10010000FE010E948606C136D107C9F70E947F030F
:100110000C9491060C94000090E0FC01E255FF4F16
:100120002491FC01E656FF4F3491FC01EA57FF4F42
:10013000E491EE2309F43CC0222339F1233091F0FD
:1001400038F42130A9F0223001F584B58F7D12C03A
:10015000273091F02830A1F02430B9F4809180004C
:100160008F7D03C0809180008F77809380000DC0C9
:1001700084B58F7784BD09C08091B0008F7703C0AC
:100180008091B0008F7D8093B000F0E0EE0FFF1FF4
:10019000E458FF4FA591B4919FB7F894611104C042
:1001A0008C913095382302C0EC913E2B3C939FBF3D
:1001B0000895CF93DF9390E0FC01E656FF4F249122
:1001C000FC01EA57FF4F8491882361F190E0880F8A
:1001D000991FFC01EE58FF4FC591D491FC01E458E2
:1001E000FF4FA591B491611109C09FB7F894888120
:1001F000209582238883EC912E230BC0623061F41A
:100200009FB7F8948881322F309583238883EC91AF
:100210002E2B2C939FBF06C08FB7F894E8812E2B0E
:1002200028838FBFDF91CF9108953FB7F8948091D5
:10023000290190912A01A0912B01B0912C0126B5A2
:10024000A89B05C02F3F19F00196A11DB11D3FBF0E
:10025000BA2FA92F982F8827820F911DA11DB11D9C
:10026000BC01CD0142E0660F771F881F991F4A9598
:10027000D1F708958F929F92AF92BF92CF92DF9263
:10028000EF92FF926B017C010E9415014B015C0112
:10029000C114D104E104F104F1F00E941501DC0164
:1002A000CB0188199909AA09BB09883E9340A10589
:1002B000B10570F321E0C21AD108E108F10888EE17
:1002C000880E83E0981EA11CB11CC114D104E10466
:1002D000F10419F7DDCFFF90EF90DF90CF90BF9042
:1002E000AF909F908F900895CF92DF92EF92FF9200
:1002F0000F931F93CF93DF936C017A018B01C0E0C2
:10030000D0E0CE15DF0581F0D8016D918D01D601C9
:10031000ED91FC910190F081E02DC6010995892BAA
:1003200011F02196EECF7E01C701DF91CF911F9191
:100330000F91FF90EF90DF90CF900895089580E0A7
:1003400090E00895FC01538D448D252F30E0842FDB
:1003500090E0821B930B541710F0CF9608950197ED
:100360000895FC01918D828D981761F0828DDF01D7
:10037000A80FB11D5D968C91928D9F5F9F73928F98
:1003800090E008958FEF9FEF0895FC01918D828D8D
:10039000981731F0828DE80FF11D858D90E008955A
:1003A0008FEF9FEF0895FC01918D228D892F90E0B2
:1003B000805C9F4F821B91098F73992708958DE26E
:1003C00091E00E94D30121E0892B09F420E0822FE3
:1003D0000895FC01848DDF01A80FB11DA35ABF4F02
:1003E0002C91848D90E001968F739927848FA68934
:1003F000B7892C93A089B1898C91837080648C9388
:10040000938D848D981306C00288F389E02D808136
:100410008F7D80830895EF92FF920F931F93CF9368
:10042000DF93EC0181E0888F9B8D8C8D981305C044
:10043000E889F989808185FD26C0F62E0B8D10E0B4
:100440000F5F1F4F0F731127E02E8C8DE8120CC029
:100450000FB607FCFACFE889F989808185FFF5CFCF
:10046000CE010E94E901F1CF8B8DFE01E80FF11D55
:10047000E35AFF4FF0829FB7F8940B8FEA89FB890C
:10048000808180620AC09FB7F894EE89FF896083FB
:10049000E889F98980818370806480839FBF81E0CF
:1004A00090E0DF91CF911F910F91FF90EF90089511
:1004B000CF93DF93EC01888D8823C9F0EA89FB890B
:1004C000808185FD05C0A889B9898C9186FD0FC002
:1004D0000FB607FCF5CF808185FFF2CFA889B989D7
:1004E0008C9185FFEDCFCE010E94E901E7CFDF912E
:1004F000CF91089580E090E0892B29F00E94DF01E0
:1005000081110C9400000895009769F0FC0101909E
:100510000020E9F73197AF01481B590BBC018DE270
:1005200091E00C94740180E090E008950E948C06A4
:100530001F920F920FB60F9211242F933F938F9318
:100540009F93AF93BF938091250190912601A09135
:100550002701B09128013091240123E0230F2D378A
:1005600020F40196A11DB11D05C026E8230F0296B7
:10057000A11DB11D20932401809325019093260194
:10058000A0932701B09328018091290190912A011D
:10059000A0912B01B0912C010196A11DB11D80935A
:1005A000290190932A01A0932B01B0932C01BF91B4
:1005B000AF919F918F913F912F910F900FBE0F9010
:1005C0001F9018951F920F920FB60F9211242F9320
:1005D0003F934F935F936F937F938F939F93AF93CB
:1005E000BF93EF93FF938DE291E00E94E901FF91A9
:1005F000EF91BF91AF919F918F917F916F915F919B
:100600004F913F912F910F900FBE0F901F90189513
:100610001F920F920FB60F9211242F938F939F93D7
:10062000EF93FF93E0913D01F0913E018081E091D5
:100630004301F091440182FD12C0908180914601F6
:100640008F5F8F7320914701821751F0E09146012F
:10065000F0E0E35DFE4F958F8093460101C08081FD
:10066000FF91EF919F918F912F910F900FBE0F905F
:100670001F901895CF92DF92EF92FF920F931F93E6
:10068000E82FF92F05C0015011092109310961F145
:10069000908196239417B9F305C0015011092109DF
:1006A000310911F1908196239413F7CFC12CD12CED
:1006B000E12CF12C0AC08FEFC81AD80AE80AF80A10
:1006C0000C151D052E053F0579F0808186238417C2
:1006D00091F36C2D7D2D8E2D9F2D1F910F91FF90ED
:1006E000EF90DF90CF90089560E070E080E090E0C0
:1006F0001F910F91FF90EF90DF90CF900895CF93CF
:10070000DF93CDB7DEB7A1970FB6F894DEBF0FBE6B
:10071000CDBF789484B5826084BD84B5816084BD8A
:1007200085B5826085BD85B5816085BD80916E008F
:10073000816080936E0010928100809181008260C0
:1007400080938100809181008160809381008091FD
:1007500080008160809380008091B10084608093EC
:10076000B1008091B00081608093B00080917A00E8
:10077000846080937A0080917A00826080937A000E
:1007800080917A00816080937A0080917A008068FD
:1007900080937A001092C100E0913D01F0913E01FA
:1007A00082E08083E0913901F0913A011082E0917A
:1007B0003B01F0913C018FEC808310924501E09168
:1007C0004101F091420186E08083E0913F01F09188
:1007D0004001808180618083E0913F01F091400180
:1007E000808188608083E0913F01F09140018081A9
:1007F00080688083E0913F01F091400180818F7D8E
:10080000808361E08BE00E94D90060E08CE00E9470
:10081000D90061E08DE00E94D9009AE0492E512C68
:10082000612C712C26EAA22E20E0B22E32E9832E12
:1008300030E0932E60E08BE00E948C0062E070E07C
:1008400080E090E00E943A0161E08BE00E948C0021
:100850006AE070E080E090E00E943A0160E08BE0A6
:100860000E948C00F5016491F4018491E82FF0E07E
:10087000EE0FFF1FE859FF4F8591949100E412E4B9
:100880002FE030E0462F0E943A0361157105810583
:10089000910549F0DC01CB010196A11DB11DBC0100
:1008A000CD019F7003C060E070E0CB010E946B053A
:1008B00026E933E44BE05DE30E94CF0520E030E021
:1008C00040E05FE30E94CF050E943305709323014F
:1008D0006093220182E191E00E948402C090220193
:1008E000D09023010D2C000CEE08FF08F7FE20C06D
:1008F0006DE28DE291E00E940B0222273327A901CD
:100900002C193D094E095F0919A2CE0181967C017F
:10091000CA01B901A30192010E946406605DF7015A
:1009200062937F01211531054105510589F715C0F5
:10093000A701960119A2CE0181967C01CA01B901D5
:10094000A30192010E946406605DF70162937F013A
:10095000211531054105510589F7C7010E9484021F
:100960008EE191E00E948402E0902201F090230148
:10097000FFE6EF16F104A4F061E08DE00E948C0028
:1009800068EE73E080E090E00E943A0160E08DE064
:100990000E948C0068EE73E080E090E00E943A01D3
:1009A000C701CD97C297A0F461E08DE00E948C0052
:1009B00064EF71E080E090E00E943A0160E08DE039
:1009C0000E948C0064EF71E080E090E00E943A01A8
:1009D00083E1E81AF1089AE2E916F104A0F461E073
:1009E0008DE00E948C006CE271E080E090E00E945B
:1009F0003A0160E08DE00E948C006CE271E080E0E2
:100A000090E00E943A010E947A0214CFEDE2F1E0F8
:100A10001382128288EE93E0A0E0B0E08483958395
:100A2000A683B78384E091E09183808385EC90E096
:100A30009587848784EC90E09787868780EC90E0A8
:100A4000918B808B81EC90E0938B828B82EC90E099
:100A5000958B848B86EC90E0978B868B118E128E13
:100A6000138E148E08950E943A056894B1110C9467
:100A7000C90508950E94AE0588F09F5798F0B92FD8
:100A80009927B751B0F0E1F0660F771F881F991FC3
:100A90001AF0BA95C9F714C0B13091F00E94C80598
:100AA000B1E008950C94C805672F782F8827B85FA8
:100AB00039F0B93FCCF3869577956795B395D9F71B
:100AC0003EF490958095709561957F4F8F4F9F4F25
:100AD0000895E89409C097FB3EF490958095709531
:100AE00061957F4F8F4F9F4F9923A9F0F92F96E97A
:100AF000BB279395F695879577956795B795F111EF
:100B0000F8CFFAF4BB0F11F460FF1BC06F5F7F4F8B
:100B10008F4F9F4F16C0882311F096E911C077239D
:100B200021F09EE8872F762F05C0662371F096E8A6
:100B3000862F70E060E02AF09A95660F771F881F75
:100B4000DAF7880F9695879597F9089557FD90588D
:100B5000440F551F59F05F3F71F04795880F97FB81
:100B6000991F61F09F3F79F087950895121613063B
:100B70001406551FF2CF4695F1DF08C0161617066A
:100B80001806991FF1CF869571056105089408959F
:100B9000E894BB2766277727CB0197F908950E9431
:100BA000E2050C9453060E94450638F00E944C065C
:100BB00020F0952311F00C943C060C94420611246D
:100BC0000C94C9050E94A60570F3959FC1F3950F7B
:100BD00050E0551F629FF001729FBB27F00DB11DC1
:100BE000639FAA27F00DB11DAA1F649F6627B00D51
:100BF000A11D661F829F2227B00DA11D621F739F3A
:100C0000B00DA11D621F839FA00D611D221F749F47
:100C10003327A00D611D231F849F600D211D822F8E
:100C2000762F6A2F11249F5750409AF0F1F08823B5
:100C30004AF0EE0FFF1FBB1F661F771F881F9150E2
:100C40005040A9F79E3F510580F00C943C060C944F
:100C5000C9055F3FE4F3983ED4F386957795679591
:100C6000B795F795E7959F5FC1F7FE2B880F911D0C
:100C70009695879597F9089597F99F6780E870E0B2
:100C800060E008959FEF80EC089500240A94161602
:100C9000170618060906089500240A94121613066A
:100CA000140605060895092E0394000C11F48823F8
:100CB00052F0BB0F40F4BF2B11F460FF04C06F5F14
:100CC0007F4F8F4F9F4F0895A1E21A2EAA1BBB1B87
:100CD000FD010DC0AA1FBB1FEE1FFF1FA217B30708
:100CE000E407F50720F0A21BB30BE40BF50B661F1E
:100CF000771F881F991F1A9469F7609570958095E2
:100D000090959B01AC01BD01CF010895EE0FFF1F2F
:100D10000590F491E02D099481E090E0F8940C9412
:060D20009106F894FFCFDC
:100D2600000000000B027401A2015802D301B101B8
:100D3600C50164697374616E6365203A20000D0A0B
:020D46000000AB
:107800000C94343C0C94513C0C94513C0C94513CE1
:107810000C94513C0C94513C0C94513C0C94513CB4
:107820000C94513C0C94513C0C94513C0C94513CA4
:107830000C94513C0C94513C0C94513C0C94513C94
:107840000C94513C0C94513C0C94513C0C94513C84
:107850000C94513C0C94513C0C94513C0C94513C74
:107860000C94513C0C94513C11241FBECFEFD8E036
:10787000DEBFCDBF11E0A0E0B1E0ECE9FFE702C060
:1078800005900D92A230B107D9F712E0A2E0B1E065
:1078900001C01D92AD30B107E1F70E942D3D0C945F
:1078A000CC3F0C94003C982F959595959595959582
:1078B000905D8F708A307CF0282F295A8091C0000B
:1078C00085FFFCCF9093C6008091C00085FFFCCF60
:1078D0002093C6000895282F205DF0CF982F809127
:1078E000C00085FFFCCF9093C6000895EF92FF92F1
:1078F0000F931F93EE24FF2487018091C00087FD22
:1079000017C00894E11CF11C011D111D81E4E8164B
:1079100082E4F8068FE0080780E0180770F3E09132
:107920000401F091050109958091C00087FFE9CF1E
:107930008091C6001F910F91FF90EF9008950E94D3
:10794000763C982F8091C00085FFFCCF9093C600B5
:1079500091362CF490330CF09053892F089597555D
:10796000892F08951F930E949F3C182F0E949F3CCF
:107970001295107F810F1F9108951F93182F882350
:1079800021F00E94763C1150E1F71F9108951F935A
:10799000182F0E94763C803249F0809103018F5F5E
:1079A000809303018530C1F01F9108958091C0003C
:1079B00085FFFCCF84E18093C6008091C00085FFE5
:1079C000FCCF1093C6008091C00085FFFCCF80E102
:1079D0008093C6001F910895E0910401F091050184
:1079E00009951F9108950E94763C803241F0809164
:1079F00003018F5F80930301853081F008958091AA
:107A0000C00085FFFCCF84E18093C6008091C00058
:107A100085FFFCCF80E18093C6000895E0910401CA
:107A2000F09105010995089540E951E08823A1F0FE
:107A30002D9A28EE33E0FA013197F1F721503040CA
:107A4000D1F72D9828EE33E0FA013197F1F7215064
:107A50003040D1F7815061F708953F924F925F9285
:107A60006F927F928F929F92AF92BF92CF92DF924E
:107A7000EF92FF920F931F93CF93DF93000080E16B
:107A80008093C4001092C50088E18093C10086E015
:107A90008093C2005098589A259A81E00E94143D24
:107AA00024E1F22E9EE1E92E85E9D82E0FE0C02ECA
:107AB00010E1B12EAA24A394B1E49B2EA6E58A2E50
:107AC000F2E57F2EE0E26E2E79E4572E63E5462E36
:107AD00050E5352E0E94763C8033B1F18133B9F107
:107AE000803409F46FC0813409F476C0823409F41B
:107AF00085C0853409F488C0803531F1823521F1A3
:107B0000813511F1853509F485C0863509F48DC0BC
:107B1000843609F496C0843709F403C1853709F423
:107B200072C1863709F466C0809103018F5F80932C
:107B30000301853079F6E0910401F0910501099582
:107B40000E94763C803351F60E94F33CC3CF0E94E2
:107B5000763C803249F78091C00085FFFCCFF092DF
:107B6000C6008091C00085FFFCCF9092C600809136
:107B7000C00085FFFCCF8092C6008091C00085FFC9
:107B8000FCCF7092C6008091C00085FFFCCF609250
:107B9000C6008091C00085FFFCCF5092C600809146
:107BA000C00085FFFCCF4092C6008091C00085FFD9
:107BB000FCCF3092C6008091C00085FFFCCFB09210
:107BC000C60088CF0E94763C863808F4BDCF0E945C
:107BD000763C0E94F33C7ECF0E94763C803809F4CC
:107BE0009CC0813809F40BC1823809F43CC1883942
:107BF00009F48FC080E00E94C73C6CCF84E10E94F2
:107C0000BD3C0E94F33C66CF85E00E94BD3C0E94D3
:107C1000F33C60CF0E94763C809306010E94763C44
:107C2000809307010E94F33C55CF0E94763C80333D
:107C300009F41DC183E00E94BD3C80E00E94C73C66
:107C400049CF0E94763C809309020E94763C809343
:107C5000080280910C028E7F80930C020E94763C79
:107C6000853409F415C18091080290910902892B8D
:107C700089F000E010E00E94763CF801E85FFE4FDA
:107C800080830F5F1F4F80910802909109020817AF
:107C9000190788F30E94763C803209F045CF809125
:107CA0000C0280FF01C16091060170910701660F0F
:107CB000771F7093070160930601A0910802B091AD
:107CC00009021097C9F0E8E0F1E09B01AD014E0F09
:107CD0005F1FF999FECF32BD21BD819180BDFA9A17
:107CE000F99A2F5F3F4FE417F50799F76A0F7B1F4B
:107CF00070930701609306018091C00085FFFCCF5F
:107D0000F092C6008091C00085FFFCCFB092C60003
:107D1000E1CE83E00E94C73CDDCE82E00E94C73CFA
:107D2000D9CE0E94763C809309020E94763C8093D3
:107D300008028091060190910701880F991F909386
:107D40000701809306010E94763C853409F4A6C0A1
:107D500080910C028E7F80930C020E94763C8032D0
:107D600009F0B8CE8091C00085FFFCCFF092C6002C
:107D7000609108027091090261157105B9F140E046
:107D800050E080910C02A82FA170B82FB27011C0E2
:107D9000BB2309F45CC0E0910601F0910701319624
:107DA000F0930701E09306014F5F5F4F46175707B7
:107DB000E8F4AA2369F3F999FECF209106013091E6
:107DC000070132BD21BDF89A90B58091C00085FFB2
:107DD000FCCF9093C6002F5F3F4F30930701209355
:107DE00006014F5F5F4F4617570718F38091C00099
:107DF00085FDE5CE8091C00085FFF8CFE0CE81E023
:107E00000E94C73C67CE0E94763C803209F08CCE3F
:107E10008091C00085FFFCCFF092C6008091C00029
:107E200085FFFCCFE092C6008091C00085FFFCCFAB
:107E3000D092C6008091C00085FFFCCFC092C600E2
:107E40008091C00085FFFCCFB092C60043CEE09188
:107E50000601F091070194918091C00085FFFCCF4D
:107E60009093C6009CCF80E10E94C73C33CE0E9415
:107E7000763C0E94763C182F0E94763C112309F430
:107E800083C0113009F484C08FE00E94C73C22CE29
:107E900080910C02816080930C02E5CE80910C02EF
:107EA000816080930C0259CF809107018823880F4D
:107EB000880B8A2180930B02809106019091070123
:107EC000880F991F90930701809306018091080203
:107ED00080FF09C080910802909109020196909359
:107EE000090280930802F894F999FECF1127E091D6
:107EF0000601F0910701C8E0D1E08091080290915D
:107F00000902103091F40091570001700130D9F34B
:107F100003E000935700E89500915700017001308D
:107F2000D9F301E100935700E89509901990009169
:107F3000570001700130D9F301E000935700E89534
:107F40001395103498F011270091570001700130FB
:107F5000D9F305E000935700E895009157000170B0
:107F60000130D9F301E100935700E895329602976A
:107F700009F0C7CF103011F00296E5CF112480919F
:107F8000C00085FFB9CEBCCE8EE10E94C73CA2CD19
:0C7F900085E90E94C73C9ECDF894FFCF0D
:027F9C00800063
:040000030000780081
:00000001FF
